{
  "transactions": [
    {
      "hash": "0xa55c156ce7239c91584bd9147bff41c4e04b7207435354fbc9082d6985c0d1b9",
      "transactionType": "CALL",
      "contractName": null,
      "contractAddress": "0x710d1e7f345ca3d893511743a00de2cfc1eab6de",
      "function": "registerProperty(address,address,string,string,string,uint256,uint256,uint8,string)",
      "arguments": [
        "0xA4469cCf38cc88bA64c9d570692872c5c2A13aF7",
        "0xA4469cCf38cc88bA64c9d570692872c5c2A13aF7",
        "Welcome Home Test Property",
        "WHTP",
        "QmTestHash123456789",
        "1000000000000000000000000",
        "100000000000000000000000",
        "0",
        "123 Test Street, Test City"
      ],
      "transaction": {
        "from": "0xd1b156294afa63d7d174d06d5a83e547d7a5aba9",
        "to": "0x710d1e7f345ca3d893511743a00de2cfc1eab6de",
        "gas": "0x77e1f",
        "value": "0xde0b6b3a7640000",
        "input": "0x8f49cdf3000000000000000000000000a4469ccf38cc88ba64c9d570692872c5c2a13af7000000000000000000000000a4469ccf38cc88ba64c9d570692872c5c2a13af70000000000000000000000000000000000000000000000000000000000000120000000000000000000000000000000000000000000000000000000000000016000000000000000000000000000000000000000000000000000000000000001a000000000000000000000000000000000000000000000d3c21bcecceda100000000000000000000000000000000000000000000000000152d02c7e14af6800000000000000000000000000000000000000000000000000000000000000000000000000000000000000000000000000000000000000000000000000000000001e0000000000000000000000000000000000000000000000000000000000000001a57656c636f6d6520486f6d6520546573742050726f7065727479000000000000000000000000000000000000000000000000000000000000000000000000000457485450000000000000000000000000000000000000000000000000000000000000000000000000000000000000000000000000000000000000000000000013516d546573744861736831323334353637383900000000000000000000000000000000000000000000000000000000000000000000000000000000000000001a3132332054657374205374726565742c20546573742043697479000000000000",
        "nonce": "0xa",
        "chainId": "0x128"
      },
      "additionalContracts": [],
      "isFixedGasLimit": false
    }
  ],
  "receipts": [],
  "libraries": [],
  "pending": [],
  "returns": {
    "0": {
      "internal_type": "uint256",
      "value": "0"
    }
  },
  "timestamp": 1758786324,
  "chain": 296,
  "commit": "933babb"
}